:100000000C943E000C945B000C945B000C945B0021
:100010000C945B000C945B000C945B000C945B00F4
:100020000C945B000C945B000C945B000C945B00E4
:100030000C945B000C945B000C945B000C945B00D4
:100040000C945B000C945B000C945B000C945B00C4
:100050000C945B000C945B000C945B000C945B00B4
:100060000C945B000C945B00232425262728292A66
:100070002B2C2D2E2F3031323334350011241FBE5E
:10008000CFEFD8E0DEBFCDBF11E0A0E0B1E0ECE003
:10009000F7E002C005900D92A030B107D9F711E04A
:1000A000A0E0B1E001C01D92A030B107E1F70E94CD
:1000B0006E010C9484030C940000482F58980000A3
:1000C0000000000000000000000000000000000030
:1000D0000000000000000000000000000000000020
:1000E0000000000000000000000000000000000010
:1000F0000000000000000000000000000000000000
:1001000000000000000000000000000000000000EF
:1001100000000000000000000000000000000000DF
:1001200000000000000000000000000000000000CF
:10013000000000000000000000000000000091E04E
:1001400020E030E047C0589A0000000000000000A6
:10015000000000000000000000000000000000009F
:10016000000000000000000000000000000000008F
:10017000000000000000000000000000000000007F
:10018000000000000000000000000000000000006F
:10019000000000000000000000000000000000005F
:1001A000000000000000000000000000000000004F
:1001B000000000000000000000000000000000003F
:1001C0000000000000000000990F2F5F3F4F283013
:1001D000310531F0892F842309F0B5CF5898B4CF79
:1001E000589A08958BB181708BB985B1807C85B99F
:1001F00088B1807C88B98AB18E6F8AB984B18F63E7
:1002000084B987B18F6387B90895CF93DF93282F7F
:10021000883008F02EC081E090E002C0880F991F5E
:100220002A95E2F7282FABE2B0E0EAE2F0E0C9E27B
:10023000D0E09081822F8095892380838C91822BBE
:100240008C9300000000000000000000000000008F
:10025000000000000000000000000000000000009E
:100260000000888190E08223E9F0892FDF91CF910F
:10027000089588508630D8F0822F8E50863048F509
:1002800030E02E50304081E090E002C0880F991F8E
:100290002A95E2F7282FA8E2B0E0E7E2F0E0C6E214
:1002A000D0E0C7CF91E0892FDF91CF91089530E062
:1002B0002850304081E090E002C0880F991F2A95B5
:1002C000E2F7282FA5E2B0E0E4E2F0E0C3E2D0E0FC
:1002D000B0CF9FEF892FDF91CF910895AF92BF925A
:1002E000CF92DF92EF92FF920F931F93DF93CF9302
:1002F000CDB7DEB7C257D0400FB6F894DEBF0FBE01
:10030000CDBF8BB181708BB985B1807C85B988B147
:10031000807C88B98AB18E6F8AB984B18F6384B9C1
:1003200087B18F6387B91FBE509A589ADE0197969E
:1003300080E090E06E010894C11CD11C14E1E12E14
:10034000F12CEC0EFD1EF601E80FF91F1082F701EB
:10035000E80FF91F10821D921D921D921D920196A9
:100360008331910581F710E0BBEFBB2EAAEFAA2ED7
:10037000143108F4C1C08BB181708BB985B1807C18
:1003800085B988B1807C88B98AB18E6F8AB984B109
:100390008F6384B987B18F6387B9D60168E670E04F
:1003A0000AC0813009F4E3C011966F5F7F4FAE152C
:1003B000BF0509F4A0C08C918B3F99F7FB014491D4
:1003C0004068589800000000000000000000000095
:1003D000000000000000000000000000000000001D
:1003E000000000000000000000000000000000000D
:1003F00000000000000000000000000000000000FD
:1004000000000000000000000000000000000000EC
:1004100000000000000000000000000000000000DC
:1004200000000000000000000000000000000000CC
:1004300000000000000000000000000000000000BC
:100440000000000091E020E030E047C0589A000032
:10045000000000000000000000000000000000009C
:10046000000000000000000000000000000000008C
:10047000000000000000000000000000000000007C
:10048000000000000000000000000000000000006C
:10049000000000000000000000000000000000005C
:1004A000000000000000000000000000000000004C
:1004B000000000000000000000000000000000003C
:1004C0000000000000000000000000000000990F84
:1004D0002F5F3F4F2830310531F0892F842309F0F9
:1004E000B5CF5898B4CF589A11966F5F7F4FAE151D
:1004F000BF0509F060CF10E0012F0F5F802F0E9431
:100500000501882309F4C8C0612F70E0DB01AA0F40
:10051000BB1FAA0FBB1FF601EA0FFB1F26A137A1C5
:1005200040A551A557FD06C0F701E60FF71F8081D2
:100530008F5F8083AC0DBD1D220F331F441F551FDD
:10054000216096962D933D934D935C939997F70177
:10055000E60FF71F80818F3140F0F601E60FF71F9D
:100560008081882309F4CDC0A082102F01CFFB0128
:1005700044915898000000000000000000000000B6
:10058000000000000000000000000000000000006B
:10059000000000000000000000000000000000005B
:1005A000000000000000000000000000000000004B
:1005B000000000000000000000000000000000003B
:1005C000000000000000000000000000000000002B
:1005D000000000000000000000000000000000001B
:1005E000000000000000000000000000000000000B
:1005F0000000000091E020E030E048C0589A000080
:1006000000000000000000000000000000000000EA
:1006100000000000000000000000000000000000DA
:1006200000000000000000000000000000000000CA
:1006300000000000000000000000000000000000BA
:1006400000000000000000000000000000000000AA
:10065000000000000000000000000000000000009A
:10066000000000000000000000000000000000008A
:100670000000000000000000000000000000990FD2
:100680002F5F3F4F2830310509F42DCF892F842368
:1006900009F0B4CF5898B3CF612F70E0DB01AA0FF7
:1006A000BB1FAA0FBB1FF601EA0FFB1F26A137A134
:1006B00040A551A557FD1EC0AC0DBD1D220F331F17
:1006C000441F551F96962D933D934D935C93999798
:1006D000F601E60FF71F8081882321F08150808387
:1006E000102F46CE96961D921D921D921C929997A0
:1006F000102F3ECEF701E60FF71F808181508083D7
:0C070000DBCFB082102F34CEF894FFCF76
:00000001FF
