:100000000C943E000C945B000C945B000C945B0021
:100010000C945B000C945B000C945B000C945B00F4
:100020000C945B000C945B000C945B000C945B00E4
:100030000C945B000C945B000C945B000C945B00D4
:100040000C945B000C945B000C945B000C945B00C4
:100050000C945B000C945B000C945B000C945B00B4
:100060000C945B000C945B00363738393A3B3C3DCE
:100070004847464544434241403F3E0011241FBE8D
:10008000CFEFD8E0DEBFCDBF11E0A0E0B1E0E4E00B
:10009000F7E002C005900D92A030B107D9F711E04A
:1000A000A0E0B1E001C01D92A030B107E1F70E94CD
:1000B00071010C9480030C940000482F58980000A4
:1000C0000000000000000000000000000000000030
:1000D0000000000000000000000000000000000020
:1000E0000000000000000000000000000000000010
:1000F0000000000000000000000000000000000000
:1001000000000000000000000000000000000000EF
:1001100000000000000000000000000000000000DF
:1001200000000000000000000000000000000000CF
:10013000000000000000000000000000000091E04E
:1001400020E030E047C0589A0000000000000000A6
:10015000000000000000000000000000000000009F
:10016000000000000000000000000000000000008F
:10017000000000000000000000000000000000007F
:10018000000000000000000000000000000000006F
:10019000000000000000000000000000000000005F
:1001A000000000000000000000000000000000004F
:1001B000000000000000000000000000000000003F
:1001C0000000000000000000990F2F5F3F4F283013
:1001D000310531F0892F842309F0B5CF5898B4CF79
:1001E000589A08958BB181708BB985B1807C85B99F
:1001F00088B1807C88B98AB18E6F8AB984B18F63E7
:1002000084B987B18F6387B90895CF93DF93282F7F
:10021000883008F034C081E090E002C0880F991F58
:100220002A95E2F7982FABE2B0E0EAE2F0E0C9E20B
:10023000D0E08081392F3095832380838C91892B66
:100240008C9300000000000000000000000000008F
:10025000000000000000000000000000000000009E
:100260000000888120E0892319F18C9183238C93ED
:100270008081892B8083822FDF91CF9108958850D0
:100280008630C0F0822F8E50863030F530E02E5010
:10029000304081E090E002C0880F991F2A95E2F774
:1002A000982FA8E2B0E0E7E2F0E0C6E2D0E0C1CFEC
:1002B00021E0DBCF30E02850304081E090E002C008
:1002C000880F991F2A95E2F7982FA5E2B0E0E4E2A3
:1002D000F0E0C3E2D0E0ADCF2FEF822FDF91CF91DE
:1002E0000895AF92BF92CF92DF92EF92FF920F9359
:1002F0001F93DF93CF93CDB7DEB7C257D0400FB671
:10030000F894DEBF0FBECDBF8BB181708BB985B1C4
:10031000807C85B988B1807C88B98AB18E6F8AB9B2
:1003200084B18F6384B987B18F6387B91FBE509A38
:10033000589ADE01979680E090E06E010894C11C07
:10034000D11C14E1E12EF12CEC0EFD1EF601E80F9C
:10035000F91F1082F701E80FF91F10821D921D92FC
:100360001D921D9201968331910581F710E0BBEF3C
:10037000BB2EAAEFAA2E133108F4C1C08BB1817035
:100380008BB985B1807C85B988B1807C88B98AB108
:100390008E6F8AB984B18F6384B987B18F6387B94F
:1003A000D60168E670E00AC0813009F4E3C0119616
:1003B0006F5F7F4FAE15BF0509F4A0C08C918B3FD6
:1003C00099F7FB0144914068589800000000000034
:1003D000000000000000000000000000000000001D
:1003E000000000000000000000000000000000000D
:1003F00000000000000000000000000000000000FD
:1004000000000000000000000000000000000000EC
:1004100000000000000000000000000000000000DC
:1004200000000000000000000000000000000000CC
:1004300000000000000000000000000000000000BC
:100440000000000000000000000091E020E030E02B
:1004500047C0589A000000000000000000000000A3
:10046000000000000000000000000000000000008C
:10047000000000000000000000000000000000007C
:10048000000000000000000000000000000000006C
:10049000000000000000000000000000000000005C
:1004A000000000000000000000000000000000004C
:1004B000000000000000000000000000000000003C
:1004C000000000000000000000000000000000002C
:1004D00000000000990F2F5F3F4F2830310531F0A9
:1004E000892F842309F0B5CF5898B4CF589A119624
:1004F0006F5F7F4FAE15BF0509F060CF10E0012F91
:100500000F5F802F0E940501882309F4C8C0612F66
:1005100070E0DB01AA0FBB1FAA0FBB1FF601EA0F99
:10052000FB1F26A137A140A551A557FD06C0F70125
:10053000E60FF71F80818F5F8083AC0DBD1D220FFA
:10054000331F441F551F216096962D933D934D9365
:100550005C939997F701E60FF71F8081803240F096
:10056000F601E60FF71F8081882309F4C6C0A08238
:10057000102F01CFFB0144915898000000000000AB
:10058000000000000000000000000000000000006B
:10059000000000000000000000000000000000005B
:1005A000000000000000000000000000000000004B
:1005B000000000000000000000000000000000003B
:1005C000000000000000000000000000000000002B
:1005D000000000000000000000000000000000001B
:1005E000000000000000000000000000000000000B
:1005F0000000000000000000000091E020E030E07A
:1006000048C0589A000000000000000000000000F0
:1006100000000000000000000000000000000000DA
:1006200000000000000000000000000000000000CA
:1006300000000000000000000000000000000000BA
:1006400000000000000000000000000000000000AA
:10065000000000000000000000000000000000009A
:10066000000000000000000000000000000000008A
:10067000000000000000000000000000000000007A
:1006800000000000990F2F5F3F4F2830310509F41B
:100690002DCF892F842309F0B4CF5898B3CF612F81
:1006A00070E0DB01AA0FBB1FAA0FBB1FF601EA0F08
:1006B000FB1F26A137A140A551A557FD17C0AC0DC2
:1006C000BD1D220F331F441F551F96962D933D933A
:1006D0004D935C939997F601E60FF71F808188236D
:1006E00009F446CF81508083102F45CEF701E60FE5
:1006F000F71F808181508083E2CFB082102F3BCEE4
:04070000F894FFCF9B
:00000001FF
