:100000000C94B4200C94E5200C946B210C94D1201A
:100010000C94D1200C94D1200C94D1200C94D1209C
:100020000C94D1200C94D1200C94D1200C94D3208A
:100030000C94D1200C94D1200C94D1200C94D1207C
:100040000C94D1200C94D1200C94D1200C94D1206C
:100050000C94D1200C94D1200C94D1200C94D1205C
:100060000C94D1200C94D1207F7F7F7F7F7F808074
:100070008080808080808080818181818181818178
:10008000818182828282828282828282838383834E
:100090008383838383838384848484848484848427
:1000A00084858585858585858585858686868686FC
:1000B00086868686868687878787878787878787D6
:1000C00088888888888888888888898989898989AA
:1000D000898989898A8A8A8A8A8A8A8A8A8A8A8B83
:1000E0008B8B8B8B8B8B8B8B8B8C8C8C8C8C8C8C59
:1000F0008C8C8C8D8D8D8D8D8D8D8D8D8D8D8E8E31
:100100008E8E8E8E8E8E8E8E8F8F8F8F8F8F8F8F07
:100110008F8F9090909090909090909090919191DE
:1001200091919191919191929292929292929292B6
:10013000929393939393939393939393949494948C
:100140009494949494949595959595959595959565
:10015000959696969696969696969697979797973B
:100160009797979797979898989898989898989815
:1001700099999999999999999999999A9A9A9A9AEA
:100180009A9A9A9A9A9B9B9B9B9B9B9B9B9B9B9BC4
:100190009C9C9C9C9C9C9C9C9C9C9D9D9D9D9D9D99
:1001A0009D9D9D9D9D9E9E9E9E9E9E9E9E9E9E9F73
:1001B0009F9F9F9F9F9F9F9F9F9FA0A0A0A0A0A049
:1001C000A0A0A0A0A0A1A1A1A1A1A1A1A1A1A1A223
:1001D000A2A2A2A2A2A2A2A2A2A2A3A3A3A3A3A3F9
:1001E000A3A3A3A3A3A4A4A4A4A4A4A4A4A4A4A5D3
:1001F000A5A5A5A5A5A5A5A5A5A5A6A6A6A6A6A6A9
:10020000A6A6A6A6A6A7A7A7A7A7A7A7A7A7A7A783
:10021000A8A8A8A8A8A8A8A8A8A8A8A9A9A9A9A959
:10022000A9A9A9A9A9AAAAAAAAAAAAAAAAAAAAAA33
:10023000ABABABABABABABABABABABACACACACAC09
:10024000ACACACACACACADADADADADADADADADADE4
:10025000ADAEAEAEAEAEAEAEAEAEAEAEAFAFAFAFBB
:10026000AFAFAFAFAFAFAFB0B0B0B0B0B0B0B0B095
:10027000B0B0B0B1B1B1B1B1B1B1B1B1B1B1B2B26F
:10028000B2B2B2B2B2B2B2B2B2B3B3B3B3B3B3B347
:10029000B3B3B3B3B4B4B4B4B4B4B4B4B4B4B4B521
:1002A000B5B5B5B5B5B5B5B5B5B5B5B6B6B6B6B6F9
:1002B000B6B6B6B6B6B6B7B7B7B7B7B7B7B7B7B7D4
:1002C000B7B7B8B8B8B8B8B8B8B8B8B8B8B9B9B9AD
:1002D000B9B9B9B9B9B9B9B9B9BABABABABABABA87
:1002E000BABABABABBBBBBBBBBBBBBBBBBBBBBBB62
:1002F000BCBCBCBCBCBCBCBCBCBCBCBCBDBDBDBD3A
:10030000BDBDBDBDBDBDBDBEBEBEBEBEBEBEBEBE14
:10031000BEBEBEBFBFBFBFBFBFBFBFBFBFBFBFC0EF
:10032000C0C0C0C0C0C0C0C0C0C0C0C1C1C1C1C1C8
:10033000C1C1C1C1C1C1C1C2C2C2C2C2C2C2C2C2A4
:10034000C2C2C2C3C3C3C3C3C3C3C3C3C3C3C3C47F
:10035000C4C4C4C4C4C4C4C4C4C4C4C5C5C5C5C558
:10036000C5C5C5C5C5C5C5C5C6C6C6C6C6C6C6C635
:10037000C6C6C6C6C7C7C7C7C7C7C7C7C7C7C7C711
:10038000C7C8C8C8C8C8C8C8C8C8C8C8C8C9C9C9EB
:10039000C9C9C9C9C9C9C9C9C9C9CACACACACACAC7
:1003A000CACACACACACACACBCBCBCBCBCBCBCBCBA4
:1003B000CBCBCBCCCCCCCCCCCCCCCCCCCCCCCCCC80
:1003C000CDCDCDCDCDCDCDCDCDCDCDCDCDCECECE5A
:1003D000CECECECECECECECECECECFCFCFCFCFCF37
:1003E000CFCFCFCFCFCFCFCFD0D0D0D0D0D0D0D015
:1003F000D0D0D0D0D0D1D1D1D1D1D1D1D1D1D1D1F2
:10040000D1D1D2D2D2D2D2D2D2D2D2D2D2D2D2D2CE
:10041000D3D3D3D3D3D3D3D3D3D3D3D3D3D3D4D4AA
:10042000D4D4D4D4D4D4D4D4D4D4D4D5D5D5D5D587
:10043000D5D5D5D5D5D5D5D5D5D6D6D6D6D6D6D665
:10044000D6D6D6D6D6D6D6D7D7D7D7D7D7D7D7D743
:10045000D7D7D7D7D7D7D8D8D8D8D8D8D8D8D8D822
:10046000D8D8D8D8D9D9D9D9D9D9D9D9D9D9D9D900
:10047000D9D9D9DADADADADADADADADADADADADADF
:10048000DADBDBDBDBDBDBDBDBDBDBDBDBDBDBDBBD
:10049000DCDCDCDCDCDCDCDCDCDCDCDCDCDCDCDD9B
:1004A000DDDDDDDDDDDDDDDDDDDDDDDDDDDDDDDE7B
:1004B000DEDEDEDEDEDEDEDEDEDEDEDEDEDEDFDF5A
:1004C000DFDFDFDFDFDFDFDFDFDFDFDFDFDFE0E03A
:1004D000E0E0E0E0E0E0E0E0E0E0E0E0E0E0E1E11A
:1004E000E1E1E1E1E1E1E1E1E1E1E1E1E1E1E2E2FA
:1004F000E2E2E2E2E2E2E2E2E2E2E2E2E2E2E3E3DA
:10050000E3E3E3E3E3E3E3E3E3E3E3E3E3E3E3E4BA
:10051000E4E4E4E4E4E4E4E4E4E4E4E4E4E4E4E49B
:10052000E5E5E5E5E5E5E5E5E5E5E5E5E5E5E5E57B
:10053000E5E6E6E6E6E6E6E6E6E6E6E6E6E6E6E65C
:10054000E6E6E6E7E7E7E7E7E7E7E7E7E7E7E7E73E
:10055000E7E7E7E7E8E8E8E8E8E8E8E8E8E8E8E81F
:10056000E8E8E8E8E8E8E8E9E9E9E9E9E9E9E9E902
:10057000E9E9E9E9E9E9E9E9E9EAEAEAEAEAEAEAE4
:10058000EAEAEAEAEAEAEAEAEAEAEAEAEBEBEBEBC7
:10059000EBEBEBEBEBEBEBEBEBEBEBEBEBEBEBEBAB
:1005A000ECECECECECECECECECECECECECECECEC8B
:1005B000ECECECECEDEDEDEDEDEDEDEDEDEDEDED6F
:1005C000EDEDEDEDEDEDEDEDEEEEEEEEEEEEEEEE53
:1005D000EEEEEEEEEEEEEEEEEEEEEEEEEEEEEFEF39
:1005E000EFEFEFEFEFEFEFEFEFEFEFEFEFEFEFEF1B
:1005F000EFEFEFF0F0F0F0F0F0F0F0F0F0F0F0F0FE
:10060000F0F0F0F0F0F0F0F0F0F0F1F1F1F1F1F1E4
:10061000F1F1F1F1F1F1F1F1F1F1F1F1F1F1F1F1CA
:10062000F1F2F2F2F2F2F2F2F2F2F2F2F2F2F2F2AB
:10063000F2F2F2F2F2F2F2F2F2F3F3F3F3F3F3F393
:10064000F3F3F3F3F3F3F3F3F3F3F3F3F3F3F3F37A
:10065000F3F3F3F4F4F4F4F4F4F4F4F4F4F4F4F45D
:10066000F4F4F4F4F4F4F4F4F4F4F4F4F4F5F5F547
:10067000F5F5F5F5F5F5F5F5F5F5F5F5F5F5F5F52A
:10068000F5F5F5F5F5F5F5F5F5F6F6F6F6F6F6F613
:10069000F6F6F6F6F6F6F6F6F6F6F6F6F6F6F6F6FA
:1006A000F6F6F6F6F6F6F7F7F7F7F7F7F7F7F7F7E0
:1006B000F7F7F7F7F7F7F7F7F7F7F7F7F7F7F7F7CA
:1006C000F7F7F7F7F7F7F8F8F8F8F8F8F8F8F8F8B0
:1006D000F8F8F8F8F8F8F8F8F8F8F8F8F8F8F8F89A
:1006E000F8F8F8F8F8F8F8F9F9F9F9F9F9F9F9F981
:1006F000F9F9F9F9F9F9F9F9F9F9F9F9F9F9F9F96A
:10070000F9F9F9F9F9F9F9F9F9F9F9F9FAFAFAFA55
:10071000FAFAFAFAFAFAFAFAFAFAFAFAFAFAFAFA39
:10072000FAFAFAFAFAFAFAFAFAFAFAFAFAFAFAFA29
:10073000FAFAFAFAFAFAFBFBFBFBFBFBFBFBFBFB0F
:10074000FBFBFBFBFBFBFBFBFBFBFBFBFBFBFBFBF9
:10075000FBFBFBFBFBFBFBFBFBFBFBFBFBFBFBFBE9
:10076000FBFBFBFBFBFCFCFCFCFCFCFCFCFCFCFCCE
:10077000FCFCFCFCFCFCFCFCFCFCFCFCFCFCFCFCB9
:10078000FCFCFCFCFCFCFCFCFCFCFCFCFCFCFCFCA9
:10079000FCFCFCFCFCFCFCFCFCFCFCFCFCFCFCFC99
:1007A000FDFDFDFDFDFDFDFDFDFDFDFDFDFDFDFD79
:1007B000FDFDFDFDFDFDFDFDFDFDFDFDFDFDFDFD69
:1007C000FDFDFDFDFDFDFDFDFDFDFDFDFDFDFDFD59
:1007D000FDFDFDFDFDFDFDFDFDFDFDFDFDFDFDFD49
:1007E000FDFDFDFDFDFDFDFDFDFDFDFDFDFDFDFD39
:1007F000FDFDFDFDFDFEFEFEFEFEFEFEFEFEFEFE1E
:10080000FEFEFEFEFEFEFEFEFEFEFEFEFEFEFEFE08
:10081000FEFEFEFEFEFEFEFEFEFEFEFEFEFEFEFEF8
:10082000FEFEFEFEFEFEFEFEFEFEFEFEFEFEFEFEE8
:10083000FEFEFEFEFEFEFEFEFEFEFEFEFEFEFEFED8
:10084000FEFEFEFEFEFEFEFEFEFEFEFEFEFEFEFEC8
:10085000FEFEFEFEFEFEFEFEFEFEFEFEFEFEFEFEB8
:10086000FEFEFEFEFEFEFEFEFEFEFEFEFEFEFEFEA8
:10087000FEFEFEFEFEFEFEFEFEFEFEFEFEFEFEFE98
:10088000FEFEFEFEFEFEFEFEFEFEFEFEFEFEFEFE88
:10089000FEFEFEFEFEFEFEFEFEFEFEFEFEFEFEFE78
:1008A000FEFEFEFEFEFEFEFEFEFEFEFEFEFEFEFE68
:1008B000FEFEFEFEFEFEFEFEFEFEFEFEFEFEFEFE58
:1008C000FEFEFEFEFEFEFEFEFEFEFEFEFEFEFEFE48
:1008D000FEFEFEFEFEFEFEFEFEFEFEFEFDFDFDFD3C
:1008E000FDFDFDFDFDFDFDFDFDFDFDFDFDFDFDFD38
:1008F000FDFDFDFDFDFDFDFDFDFDFDFDFDFDFDFD28
:10090000FDFDFDFDFDFDFDFDFDFDFDFDFDFDFDFD17
:10091000FDFDFDFDFDFDFDFDFDFDFDFDFDFDFDFD07
:10092000FDFDFDFDFDFDFDFDFDFDFDFDFDFDFDFDF7
:10093000FDFCFCFCFCFCFCFCFCFCFCFCFCFCFCFCF6
:10094000FCFCFCFCFCFCFCFCFCFCFCFCFCFCFCFCE7
:10095000FCFCFCFCFCFCFCFCFCFCFCFCFCFCFCFCD7
:10096000FCFCFCFCFCFCFCFCFCFCFCFCFBFBFBFBCB
:10097000FBFBFBFBFBFBFBFBFBFBFBFBFBFBFBFBC7
:10098000FBFBFBFBFBFBFBFBFBFBFBFBFBFBFBFBB7
:10099000FBFBFBFBFBFBFBFBFBFBFBFAFAFAFAFAAC
:1009A000FAFAFAFAFAFAFAFAFAFAFAFAFAFAFAFAA7
:1009B000FAFAFAFAFAFAFAFAFAFAFAFAFAFAFAFA97
:1009C000FAFAFAFAFAF9F9F9F9F9F9F9F9F9F9F992
:1009D000F9F9F9F9F9F9F9F9F9F9F9F9F9F9F9F987
:1009E000F9F9F9F9F9F9F9F9F9F9F8F8F8F8F8F87D
:1009F000F8F8F8F8F8F8F8F8F8F8F8F8F8F8F8F877
:100A0000F8F8F8F8F8F8F8F8F8F8F8F7F7F7F7F76B
:100A1000F7F7F7F7F7F7F7F7F7F7F7F7F7F7F7F766
:100A2000F7F7F7F7F7F7F7F7F7F7F7F6F6F6F6F65B
:100A3000F6F6F6F6F6F6F6F6F6F6F6F6F6F6F6F656
:100A4000F6F6F6F6F6F6F6F6F5F5F5F5F5F5F5F54E
:100A5000F5F5F5F5F5F5F5F5F5F5F5F5F5F5F5F546
:100A6000F5F5F5F5F4F4F4F4F4F4F4F4F4F4F4F442
:100A7000F4F4F4F4F4F4F4F4F4F4F4F4F4F4F3F338
:100A8000F3F3F3F3F3F3F3F3F3F3F3F3F3F3F3F336
:100A9000F3F3F3F3F3F3F3F3F2F2F2F2F2F2F2F22E
:100AA000F2F2F2F2F2F2F2F2F2F2F2F2F2F2F2F226
:100AB000F1F1F1F1F1F1F1F1F1F1F1F1F1F1F1F126
:100AC000F1F1F1F1F1F1F1F0F0F0F0F0F0F0F0F01F
:100AD000F0F0F0F0F0F0F0F0F0F0F0F0F0F0EFEF18
:100AE000EFEFEFEFEFEFEFEFEFEFEFEFEFEFEFEF16
:100AF000EFEFEFEEEEEEEEEEEEEEEEEEEEEEEEEE13
:100B0000EEEEEEEEEEEEEEEEEEEDEDEDEDEDEDED0C
:100B1000EDEDEDEDEDEDEDEDEDEDEDEDEDECECEC08
:100B2000ECECECECECECECECECECECECECECECEC05
:100B3000ECEBEBEBEBEBEBEBEBEBEBEBEBEBEBEB04
:100B4000EBEBEBEBEBEAEAEAEAEAEAEAEAEAEAEA00
:100B5000EAEAEAEAEAEAEAEAE9E9E9E9E9E9E9E9FD
:100B6000E9E9E9E9E9E9E9E9E9E9E8E8E8E8E8E8FB
:100B7000E8E8E8E8E8E8E8E8E8E8E8E8E8E7E7E7F8
:100B8000E7E7E7E7E7E7E7E7E7E7E7E7E7E7E6E6F7
:100B9000E6E6E6E6E6E6E6E6E6E6E6E6E6E6E6E6F5
:100BA000E5E5E5E5E5E5E5E5E5E5E5E5E5E5E5E5F5
:100BB000E5E4E4E4E4E4E4E4E4E4E4E4E4E4E4E4F4
:100BC000E4E4E3E3E3E3E3E3E3E3E3E3E3E3E3E3F3
:100BD000E3E3E3E2E2E2E2E2E2E2E2E2E2E2E2E2F2
:100BE000E2E2E2E1E1E1E1E1E1E1E1E1E1E1E1E1F2
:100BF000E1E1E1E0E0E0E0E0E0E0E0E0E0E0E0E0F2
:100C0000E0E0E0DFDFDFDFDFDFDFDFDFDFDFDFDFF1
:100C1000DFDFDFDEDEDEDEDEDEDEDEDEDEDEDEDEF1
:100C2000DEDEDDDDDDDDDDDDDDDDDDDDDDDDDDDDF2
:100C3000DDDDDCDCDCDCDCDCDCDCDCDCDCDCDCDCF2
:100C4000DCDBDBDBDBDBDBDBDBDBDBDBDBDBDBDBF3
:100C5000DADADADADADADADADADADADADADAD9D9F6
:100C6000D9D9D9D9D9D9D9D9D9D9D9D9D9D8D8D8F7
:100C7000D8D8D8D8D8D8D8D8D8D8D8D7D7D7D7D7F9
:100C8000D7D7D7D7D7D7D7D7D7D7D6D6D6D6D6D6FA
:100C9000D6D6D6D6D6D6D6D6D5D5D5D5D5D5D5D5FC
:100CA000D5D5D5D5D5D5D4D4D4D4D4D4D4D4D4D4FE
:100CB000D4D4D4D3D3D3D3D3D3D3D3D3D3D3D3D301
:100CC000D3D2D2D2D2D2D2D2D2D2D2D2D2D2D2D104
:100CD000D1D1D1D1D1D1D1D1D1D1D1D1D0D0D0D008
:100CE000D0D0D0D0D0D0D0D0D0CFCFCFCFCFCFCF0B
:100CF000CFCFCFCFCFCFCFCECECECECECECECECE0D
:100D0000CECECECECDCDCDCDCDCDCDCDCDCDCDCD0F
:100D1000CDCCCCCCCCCCCCCCCCCCCCCCCCCCCBCB14
:100D2000CBCBCBCBCBCBCBCBCBCBCACACACACACA19
:100D3000CACACACACACACAC9C9C9C9C9C9C9C9C91C
:100D4000C9C9C9C9C8C8C8C8C8C8C8C8C8C8C8C81F
:100D5000C7C7C7C7C7C7C7C7C7C7C7C7C7C6C6C626
:100D6000C6C6C6C6C6C6C6C6C6C5C5C5C5C5C5C52A
:100D7000C5C5C5C5C5C5C4C4C4C4C4C4C4C4C4C42D
:100D8000C4C4C3C3C3C3C3C3C3C3C3C3C3C3C2C233
:100D9000C2C2C2C2C2C2C2C2C2C2C1C1C1C1C1C139
:100DA000C1C1C1C1C1C1C0C0C0C0C0C0C0C0C0C03D
:100DB000C0C0BFBFBFBFBFBFBFBFBFBFBFBFBEBE43
:100DC000BEBEBEBEBEBEBEBEBEBEBDBDBDBDBDBD49
:100DD000BDBDBDBDBDBCBCBCBCBCBCBCBCBCBCBC4E
:100DE000BCBBBBBBBBBBBBBBBBBBBBBBBBBABABA55
:100DF000BABABABABABABABAB9B9B9B9B9B9B9B95B
:100E0000B9B9B9B9B8B8B8B8B8B8B8B8B8B8B8B75F
:100E1000B7B7B7B7B7B7B7B7B7B7B7B6B6B6B6B667
:100E2000B6B6B6B6B6B6B5B5B5B5B5B5B5B5B5B56C
:100E3000B5B5B4B4B4B4B4B4B4B4B4B4B4B3B3B373
:100E4000B3B3B3B3B3B3B3B3B2B2B2B2B2B2B2B27A
:100E5000B2B2B2B1B1B1B1B1B1B1B1B1B1B1B0B081
:100E6000B0B0B0B0B0B0B0B0B0B0AFAFAFAFAFAF88
:100E7000AFAFAFAFAFAEAEAEAEAEAEAEAEAEAEAE8D
:100E8000ADADADADADADADADADADADACACACACAC97
:100E9000ACACACACACACABABABABABABABABABAB9C
:100EA000ABAAAAAAAAAAAAAAAAAAAAAAA9A9A9A9A5
:100EB000A9A9A9A9A9A9A8A8A8A8A8A8A8A8A8A8AC
:100EC000A8A7A7A7A7A7A7A7A7A7A7A7A6A6A6A6B5
:100ED000A6A6A6A6A6A6A6A5A5A5A5A5A5A5A5A5BB
:100EE000A5A5A4A4A4A4A4A4A4A4A4A4A3A3A3A3C4
:100EF000A3A3A3A3A3A3A3A2A2A2A2A2A2A2A2A2CB
:100F0000A2A2A1A1A1A1A1A1A1A1A1A1A0A0A0A0D3
:100F1000A0A0A0A0A0A0A09F9F9F9F9F9F9F9F9FDA
:100F20009F9F9E9E9E9E9E9E9E9E9E9E9D9D9D9DE3
:100F30009D9D9D9D9D9D9D9C9C9C9C9C9C9C9C9CEA
:100F40009C9B9B9B9B9B9B9B9B9B9B9B9A9A9A9AF4
:100F50009A9A9A9A9A9A99999999999999999999FB
:100F60009998989898989898989898979797979705
:100F7000979797979797969696969696969696960B
:100F80009595959595959595959595949494949416
:100F9000949494949493939393939393939393931C
:100FA0009292929292929292929291919191919127
:100FB0009191919190909090909090909090908F2E
:100FC0008F8F8F8F8F8F8F8F8F8E8E8E8E8E8E8E38
:100FD0008E8E8E8D8D8D8D8D8D8D8D8D8D8D8C8C40
:100FE0008C8C8C8C8C8C8C8C8B8B8B8B8B8B8B8B49
:100FF0008B8B8A8A8A8A8A8A8A8A8A8A8A89898952
:101000008989898989898988888888888888888859
:101010008887878787878787878787868686868664
:10102000868686868686858585858585858585856A
:101030008484848484848484848483838383838376
:10104000838383838382828282828282828282817C
:101050008181818181818181818080808080808087
:101060008080807F7F7F7F7F7F7F7F7F7F7F7E7E8F
:101070007E7E7E7E7E7E7E7E7D7D7D7D7D7D7D7D98
:101080007D7D7C7C7C7C7C7C7C7C7C7C7B7B7B7BA2
:101090007B7B7B7B7B7B7B7A7A7A7A7A7A7A7A7AA9
:1010A0007A797979797979797979797878787878B4
:1010B00078787878787877777777777777777777BA
:1010C00076767676767676767676757575757575C6
:1010D00075757575747474747474747474747473CD
:1010E00073737373737373737372727272727272D7
:1010F00072727271717171717171717171717070DF
:1011000070707070707070706F6F6F6F6F6F6F6FE7
:101110006F6F6E6E6E6E6E6E6E6E6E6E6E6D6D6DF0
:101120006D6D6D6D6D6D6D6C6C6C6C6C6C6C6C6CF8
:101130006C6B6B6B6B6B6B6B6B6B6B6B6A6A6A6A02
:101140006A6A6A6A6A6A6969696969696969696909
:101150006968686868686868686868676767676713
:101160006767676767676666666666666666666619
:101170006565656565656565656565646464646424
:10118000646464646463636363636363636363632A
:101190006262626262626262626261616161616135
:1011A0006161616161606060606060606060605F3B
:1011B0005F5F5F5F5F5F5F5F5F5F5E5E5E5E5E5E45
:1011C0005E5E5E5E5E5D5D5D5D5D5D5D5D5D5D5C4B
:1011D0005C5C5C5C5C5C5C5C5C5C5B5B5B5B5B5B55
:1011E0005B5B5B5B5B5A5A5A5A5A5A5A5A5A5A595B
:1011F0005959595959595959595958585858585865
:101200005858585858575757575757575757575769
:101210005656565656565656565656555555555573
:101220005555555555545454545454545454545479
:101230005353535353535353535353525252525283
:101240005252525252525151515151515151515188
:101250005150505050505050505050504F4F4F4F91
:101260004F4F4F4F4F4F4F4E4E4E4E4E4E4E4E4E97
:101270004E4E4E4D4D4D4D4D4D4D4D4D4D4D4C4C9D
:101280004C4C4C4C4C4C4C4C4C4B4B4B4B4B4B4BA5
:101290004B4B4B4B4A4A4A4A4A4A4A4A4A4A4A49AB
:1012A00049494949494949494949494848484848B3
:1012B00048484848484847474747474747474747B8
:1012C00047474646464646464646464646454545BF
:1012D00045454545454545454544444444444444C5
:1012E00044444444434343434343434343434343CA
:1012F00042424242424242424242424241414141D2
:1013000041414141414141404040404040404040D6
:101310004040403F3F3F3F3F3F3F3F3F3F3F3F3EDB
:101320003E3E3E3E3E3E3E3E3E3E3E3D3D3D3D3DE2
:101330003D3D3D3D3D3D3D3C3C3C3C3C3C3C3C3CE6
:101340003C3C3C3B3B3B3B3B3B3B3B3B3B3B3B3AEB
:101350003A3A3A3A3A3A3A3A3A3A3A3939393939F2
:1013600039393939393939393838383838383838F5
:1013700038383838373737373737373737373737F9
:1013800037363636363636363636363636353535FF
:101390003535353535353535353534343434343403
:1013A0003434343434343433333333333333333306
:1013B000333333323232323232323232323232320A
:1013C0003131313131313131313131313130303010
:1013D000303030303030303030302F2F2F2F2F2F13
:1013E0002F2F2F2F2F2F2F2F2E2E2E2E2E2E2E2E15
:1013F0002E2E2E2E2E2D2D2D2D2D2D2D2D2D2D2D18
:101400002D2D2C2C2C2C2C2C2C2C2C2C2C2C2C2C1A
:101410002B2B2B2B2B2B2B2B2B2B2B2B2B2B2A2A1E
:101420002A2A2A2A2A2A2A2A2A2A2A292929292921
:101430002929292929292929292828282828282823
:101440002828282828282827272727272727272725
:101450002727272727272626262626262626262626
:101460002626262625252525252525252525252528
:101470002525252424242424242424242424242429
:10148000242323232323232323232323232323232B
:10149000222222222222222222222222222222212D
:1014A000212121212121212121212121212121202D
:1014B00020202020202020202020202020201F1F2E
:1014C0001F1F1F1F1F1F1F1F1F1F1F1F1F1F1E1E2E
:1014D0001E1E1E1E1E1E1E1E1E1E1E1E1E1E1D1D2E
:1014E0001D1D1D1D1D1D1D1D1D1D1D1D1D1D1C1C2E
:1014F0001C1C1C1C1C1C1C1C1C1C1C1C1C1C1B1B2E
:101500001B1B1B1B1B1B1B1B1B1B1B1B1B1B1B1A2C
:101510001A1A1A1A1A1A1A1A1A1A1A1A1A1A1A1A2B
:10152000191919191919191919191919191919192B
:10153000191818181818181818181818181818182A
:101540001818181717171717171717171717171728
:101550001717171716161616161616161616161627
:101560001616161616161615151515151515151524
:101570001515151515151515151414141414141422
:10158000141414141414141414141414131313131F
:10159000131313131313131313131313131313131B
:1015A000121212121212121212121212121212121B
:1015B0001212121211111111111111111111111117
:1015C0001111111111111111101010101010101013
:1015D00010101010101010101010101010100F0F0D
:1015E0000F0F0F0F0F0F0F0F0F0F0F0F0F0F0F0F0B
:1015F0000F0F0F0E0E0E0E0E0E0E0E0E0E0E0E0E08
:101600000E0E0E0E0E0E0E0E0E0E0D0D0D0D0D0D00
:101610000D0D0D0D0D0D0D0D0D0D0D0D0D0D0D0DFA
:101620000D0C0C0C0C0C0C0C0C0C0C0C0C0C0C0CF9
:101630000C0C0C0C0C0C0C0C0C0B0B0B0B0B0B0BF1
:101640000B0B0B0B0B0B0B0B0B0B0B0B0B0B0B0BEA
:101650000B0B0B0A0A0A0A0A0A0A0A0A0A0A0A0AE7
:101660000A0A0A0A0A0A0A0A0A0A0A0A0A090909DD
:1016700009090909090909090909090909090909DA
:1016800009090909090909090908080808080808D1
:1016900008080808080808080808080808080808CA
:1016A00008080808080807070707070707070707C4
:1016B00007070707070707070707070707070707BA
:1016C00007070707070706060606060606060606B4
:1016D00006060606060606060606060606060606AA
:1016E00006060606060606050505050505050505A3
:1016F000050505050505050505050505050505059A
:10170000050505050505050505050505040404048D
:101710000404040404040404040404040404040489
:101720000404040404040404040404040404040479
:101730000404040404040303030303030303030373
:101740000303030303030303030303030303030369
:101750000303030303030303030303030303030359
:101760000303030303020202020202020202020254
:101770000202020202020202020202020202020249
:101780000202020202020202020202020202020239
:101790000202020202020202020202020202020229
:1017A0000101010101010101010101010101010129
:1017B0000101010101010101010101010101010119
:1017C0000101010101010101010101010101010109
:1017D00001010101010101010101010101010101F9
:1017E00001010101010101010101010101010101E9
:1017F00001010101010000000000000000000000E4
:1018000000000000000000000000000000000000D8
:1018100000000000000000000000000000000000C8
:1018200000000000000000000000000000000000B8
:1018300000000000000000000000000000000000A8
:101840000000000000000000000000000000000098
:101850000000000000000000000000000000000088
:101860000000000000000000000000000000000078
:101870000000000000000000000000000000000068
:101880000000000000000000000000000000000058
:101890000000000000000000000000000000000048
:1018A0000000000000000000000000000000000038
:1018B0000000000000000000000000000000000028
:1018C0000000000000000000000000000000000018
:1018D0000000000000000000000000000101010104
:1018E00001010101010101010101010101010101E8
:1018F00001010101010101010101010101010101D8
:1019000001010101010101010101010101010101C7
:1019100001010101010101010101010101010101B7
:1019200001010101010101010101010101010101A7
:101930000102020202020202020202020202020288
:101940000202020202020202020202020202020277
:101950000202020202020202020202020202020267
:101960000202020202020202020202020303030353
:101970000303030303030303030303030303030337
:101980000303030303030303030303030303030327
:101990000303030303030303030303040404040412
:1019A00004040404040404040404040404040404F7
:1019B00004040404040404040404040404040404E7
:1019C00004040404040505050505050505050505CC
:1019D00005050505050505050505050505050505B7
:1019E00005050505050505050505060606060606A1
:1019F0000606060606060606060606060606060687
:101A00000606060606060606060606070707070771
:101A10000707070707070707070707070707070756
:101A20000707070707070707070707080808080841
:101A30000808080808080808080808080808080826
:101A4000080808080808080809090909090909090E
:101A500009090909090909090909090909090909F6
:101A6000090909090A0A0A0A0A0A0A0A0A0A0A0ADA
:101A70000A0A0A0A0A0A0A0A0A0A0A0A0A0A0B0BC4
:101A80000B0B0B0B0B0B0B0B0B0B0B0B0B0B0B0BA6
:101A90000B0B0B0B0B0B0B0B0C0C0C0C0C0C0C0C8E
:101AA0000C0C0C0C0C0C0C0C0C0C0C0C0C0C0C0C76
:101AB0000D0D0D0D0D0D0D0D0D0D0D0D0D0D0D0D56
:101AC0000D0D0D0D0D0D0D0E0E0E0E0E0E0E0E0E3D
:101AD0000E0E0E0E0E0E0E0E0E0E0E0E0E0E0F0F24
:101AE0000F0F0F0F0F0F0F0F0F0F0F0F0F0F0F0F06
:101AF0000F0F0F10101010101010101010101010E9
:101B000010101010101010101011111111111111CE
:101B100011111111111111111111111111121212B2
:101B20001212121212121212121212121212121295
:101B30001213131313131313131313131313131376
:101B4000131313131314141414141414141414145A
:101B5000141414141414141415151515151515153D
:101B6000151515151515151515151616161616161F
:101B70001616161616161616161616161617171702
:101B800017171717171717171717171717171818E3
:101B900018181818181818181818181818181818C5
:101BA00019191919191919191919191919191919A5
:101BB000191A1A1A1A1A1A1A1A1A1A1A1A1A1A1A86
:101BC0001A1A1B1B1B1B1B1B1B1B1B1B1B1B1B1B67
:101BD0001B1B1B1C1C1C1C1C1C1C1C1C1C1C1C1C48
:101BE0001C1C1C1D1D1D1D1D1D1D1D1D1D1D1D1D28
:101BF0001D1D1D1E1E1E1E1E1E1E1E1E1E1E1E1E08
:101C00001E1E1E1F1F1F1F1F1F1F1F1F1F1F1F1FE7
:101C10001F1F1F20202020202020202020202020C7
:101C200020202121212121212121212121212121A6
:101C30002121222222222222222222222222222286
:101C40002223232323232323232323232323232365
:101C50002424242424242424242424242424252542
:101C60002525252525252525252525252526262621
:101C700026262626262626262626262727272727FF
:101C800027272727272727272727282828282828DE
:101C900028282828282828282929292929292929BC
:101CA0002929292929292A2A2A2A2A2A2A2A2A2A9A
:101CB0002A2A2A2B2B2B2B2B2B2B2B2B2B2B2B2B77
:101CC0002B2C2C2C2C2C2C2C2C2C2C2C2C2C2C2D54
:101CD0002D2D2D2D2D2D2D2D2D2D2D2D2E2E2E2E30
:101CE0002E2E2E2E2E2E2E2E2E2F2F2F2F2F2F2F0D
:101CF0002F2F2F2F2F2F2F303030303030303030EB
:101D000030303030313131313131313131313131C7
:101D100031323232323232323232323232323333A2
:101D2000333333333333333333333434343434347D
:101D3000343434343434343535353535353535355A
:101D40003535353536363636363636363636363637
:101D50003737373737373737373737373738383810
:101D600038383838383838383839393939393939EC
:101D70003939393939393A3A3A3A3A3A3A3A3A3AC9
:101D80003A3A3B3B3B3B3B3B3B3B3B3B3B3B3C3CA3
:101D90003C3C3C3C3C3C3C3C3C3C3D3D3D3D3D3D7D
:101DA0003D3D3D3D3D3D3E3E3E3E3E3E3E3E3E3E59
:101DB0003E3E3F3F3F3F3F3F3F3F3F3F3F3F404033
:101DC000404040404040404040404141414141410D
:101DD00041414141414242424242424242424242E8
:101DE00042434343434343434343434343444444C1
:101DF000444444444444444445454545454545459B
:101E00004545454546464646464646464646464775
:101E1000474747474747474747474748484848484D
:101E20004848484848484949494949494949494928
:101E300049494A4A4A4A4A4A4A4A4A4A4A4B4B4B01
:101E40004B4B4B4B4B4B4B4B4C4C4C4C4C4C4C4CDA
:101E50004C4C4C4D4D4D4D4D4D4D4D4D4D4D4E4EB3
:101E60004E4E4E4E4E4E4E4E4E4E4F4F4F4F4F4F8C
:101E70004F4F4F4F4F505050505050505050505067
:101E8000515151515151515151515152525252523D
:101E90005252525252525353535353535353535318
:101EA00053545454545454545454545455555555EF
:101EB00055555555555556565656565656565656C8
:101EC000565757575757575757575757585858589F
:101ED0005858585858585859595959595959595979
:101EE00059595A5A5A5A5A5A5A5A5A5A5B5B5B5B50
:101EF0005B5B5B5B5B5B5B5C5C5C5C5C5C5C5C5C29
:101F00005C5C5D5D5D5D5D5D5D5D5D5D5E5E5E5EFF
:101F10005E5E5E5E5E5E5E5F5F5F5F5F5F5F5F5FD8
:101F20005F5F6060606060606060606061616161AF
:101F30006161616161616162626262626262626288
:101F4000626363636363636363636363646464645E
:101F50006464646464646565656565656565656537
:101F6000656666666666666666666667676767670D
:101F700067676767676768686868686868686868E7
:101F800069696969696969696969696A6A6A6A6ABC
:101F90006A6A6A6A6A6B6B6B6B6B6B6B6B6B6B6B96
:101FA0006C6C6C6C6C6C6C6C6C6C6D6D6D6D6D6D6B
:101FB0006D6D6D6D6E6E6E6E6E6E6E6E6E6E6E6F44
:101FC0006F6F6F6F6F6F6F6F6F707070707070701A
:101FD00070707071717171717171717171717272F2
:101FE00072727272727272727373737373737373C9
:101FF00073737474747474747474747474757575A0
:102000007575757575757576767676767676767677
:10201000767777777777777777777778787878784C
:102020007878787878787979797979797979797926
:102030007A7A7A7A7A7A7A7A7A7A7B7B7B7B7B7BFA
:102040007B7B7B7B7B7C7C7C7C7C7C7C7C7C7C7DD4
:102050007D7D7D7D7D7D7D7D7D7E7E7E7E7E7E7EA9
:102060007E7E7E7F7F7F7F7F83838384848484845E
:1020700085858585858686868686878787878788FE
:102080008888888889898989898A8A8A8A8A8B8BBB
:102090008B8B8B8C8C8C8C8C8D8D8D8D8D8E8E8E78
:1020A0008E8E8F8F8F8F8F90909090909191919135
:1020B00091929292929293939393939494949494F2
:1020C00095959595959696969696979797979797AF
:1020D000989898989899999999999A9A9A9A9A9B6E
:1020E0009B9B9B9B9C9C9C9C9C9D9D9D9D9D9D9E2C
:1020F0009E9E9E9E9F9F9F9F9FA0A0A0A0A0A1A1EB
:10210000A1A1A1A1A2A2A2A2A2A3A3A3A3A3A4A4AA
:10211000A4A4A4A4A5A5A5A5A5A6A6A6A6A6A6A76B
:10212000A7A7A7A7A8A8A8A8A8A8A9A9A9A9A9AA2C
:10213000AAAAAAAAAAABABABABABACACACACACACEE
:10214000ADADADADADADAEAEAEAEAEAFAFAFAFAFB0
:10215000AFB0B0B0B0B0B0B1B1B1B1B1B1B2B2B274
:10216000B2B2B2B3B3B3B3B3B3B4B4B4B4B4B4B53A
:10217000B5B5B5B5B5B6B6B6B6B6B6B7B7B7B7B7FF
:10218000B7B8B8B8B8B8B8B9B9B9B9B9B9B9BABAC5
:10219000BABABABABBBBBBBBBBBBBBBCBCBCBCBC8E
:1021A000BCBDBDBDBDBDBDBDBEBEBEBEBEBEBEBF57
:1021B000BFBFBFBFBFBFC0C0C0C0C0C0C1C1C1C121
:1021C000C1C1C1C1C2C2C2C2C2C2C2C3C3C3C3C3EE
:1021D000C3C3C4C4C4C4C4C4C4C5C5C5C5C5C5C5BA
:1021E000C5C6C6C6C6C6C6C6C6C7C7C7C7C7C7C789
:1021F000C7C8C8C8C8C8C8C8C8C9C9C9C9C9C9C959
:10220000C9CACACACACACACACACBCBCBCBCBCBCB28
:10221000CBCBCCCCCCCCCCCCCCCCCCCDCDCDCDCDFB
:10222000CDCDCDCDCECECECECECECECECECECFCFD0
:10223000CFCFCFCFCFCFCFD0D0D0D0D0D0D0D0D0A5
:10224000D0D0D1D1D1D1D1D1D1D1D1D1D2D2D2D27C
:10225000D2D2D2D2D2D2D2D3D3D3D3D3D3D3D3D355
:10226000D3D3D3D4D4D4D4D4D4D4D4D4D4D4D4D530
:10227000D5D5D5D5D5D5D5D5D5D5D5D5D6D6D6D60A
:10228000D6D6D6D6D6D6D6D6D6D6D7D7D7D7D7D7E8
:10229000D7D7D7D7D7D7D7D7D7D8D8D8D8D8D8D8C7
:1022A000D8D8D8D8D8D8D8D8D8D8D9D9D9D9D9D9A8
:1022B000D9D9D9D9D9D9D9D9D9D9D9D9DADADADA8A
:1022C000DADADADADADADADADADADADADADADADA6E
:1022D000DADADBDBDBDBDBDBDBDBDBDBDBDBDBDB50
:1022E000DBDBDBDBDBDBDBDBDBDBDBDBDBDCDCDC3B
:1022F000DCDCDCDCDCDCDCDCDCDCDCDCDCDCDCDC1E
:10230000DCDCDCDCDCDCDCDCDCDCDCDCDCDCDCDC0D
:10231000DCDCDCDCDCDDDDDDDDDDDDDDDDDDDDDDF2
:10232000DDDDDDDDDDDDDDDDDDDDDDDDDDDDDDDDDD
:10233000DDDDDDDDDDDDDDDDDDDDDDDDDDDDDDDDCD
:10234000DDDDDDDDDDDDDDDDDDDDDDDDDDDDDDDDBD
:10235000DDDDDDDDDDDDDDDDDDDDDDDDDDDDDDDDAD
:10236000DDDDDDDDDDDDDDDDDDDDDDDDDDDDDDDD9D
:10237000DDDDDDDDDDDDDDDDDDDDDDDDDDDDDDDC8E
:10238000DCDCDCDCDCDCDCDCDCDCDCDCDCDCDCDC8D
:10239000DCDCDCDCDCDCDCDCDCDCDCDCDCDCDCDC7D
:1023A000DCDCDCDCDCDCDCDCDCDCDBDBDBDBDBDB73
:1023B000DBDBDBDBDBDBDBDBDBDBDBDBDBDBDBDB6D
:1023C000DBDBDBDBDBDBDBDBDBDADADADADADADA64
:1023D000DADADADADADADADADADADADADADADADA5D
:1023E000DADAD9D9D9D9D9D9D9D9D9D9D9D9D9D95B
:1023F000D9D9D9D9D9D9D9D9D8D8D8D8D8D8D8D855
:10240000D8D8D8D8D8D8D8D8D8D8D8D8D7D7D7D750
:10241000D7D7D7D7D7D7D7D7D7D7D7D7D7D7D7D64D
:10242000D6D6D6D6D6D6D6D6D6D6D6D6D6D6D6D64C
:10243000D6D5D5D5D5D5D5D5D5D5D5D5D5D5D5D54B
:10244000D5D5D4D4D4D4D4D4D4D4D4D4D4D4D4D44A
:10245000D4D4D3D3D3D3D3D3D3D3D3D3D3D3D3D34A
:10246000D3D3D2D2D2D2D2D2D2D2D2D2D2D2D2D24A
:10247000D2D1D1D1D1D1D1D1D1D1D1D1D1D1D1D14B
:10248000D0D0D0D0D0D0D0D0D0D0D0D0D0D0D0CF4D
:10249000CFCFCFCFCFCFCFCFCFCFCFCFCFCECECE4F
:1024A000CECECECECECECECECECECECECDCDCDCD50
:1024B000CDCDCDCDCDCDCDCDCDCDCCCCCCCCCCCC52
:1024C000CCCCCCCCCCCCCCCCCBCBCBCBCBCBCBCB54
:1024D000CBCBCBCBCBCBCACACACACACACACACACA56
:1024E000CACACACACAC9C9C9C9C9C9C9C9C9C9C957
:1024F000C9C9C9C8C8C8C8C8C8C8C8C8C8C8C8C859
:10250000C8C7C7C7C7C7C7C7C7C7C7C7C7C7C7C65B
:10251000C6C6C6C6C6C6C6C6C6C6C6C6C6C6C5C55D
:10252000C5C5C5C5C5C5C5C5C5C5C5C5C4C4C4C45F
:10253000C4C4C4C4C4C4C4C4C4C4C4C3C3C3C3C360
:10254000C3C3C3C3C3C3C3C3C3C3C2C2C2C2C2C261
:10255000C2C2C2C2C2C2C2C2C2C2C1C1C1C1C1C161
:10256000C1C1C1C1C1C1C1C1C1C0C0C0C0C0C0C062
:10257000C0C0C0C0C0C0C0C0C0C0BFBFBFBFBFBF61
:10258000BFBFBFBFBFBFBFBFBFBFBFBEBEBEBEBE60
:10259000BEBEBEBEBEBEBEBEBEBEBEBEBDBDBDBD5F
:1025A000BDBDBDBDBDBDBDBDBDBDBDBDBDBDBDBC5C
:1025B000BCBCBCBCBCBCBCBCBCBCBCBCBCBCBCBC5B
:1025C000BCBCBBBBBBBBBBBBBBBBBBBBBBBBBBBB59
:1025D000BBBBBBBBBBBBBBBABABABABABABABABA54
:1025E000BABABABABABABABABABABABABABAB9B94D
:1025F000B9B9B9B9B9B9B9B9B9B9B9B9B9B9B9B94B
:10260000B9B9B9B9B9B9B9B9B8B8B8B8B8B8B8B842
:10261000B8B8B8B8B8B8B8B8B8B8B8B8B8B8B8B83A
:10262000B8B8B8B8B8B7B7B7B7B7B7B7B7B7B7B735
:10263000B7B7B7B7B7B7B7B7B7B7B7B7B7B7B7B72A
:10264000B7B7B7B7B7B7B7B7B7B7B7B6B6B6B6B61F
:10265000B6B6B6B6B6B6B6B6B6B6B6B6B6B6B6B61A
:10266000B6B6B6B6B6B6B6B6B6B6B6B6B6B6B6B60A
:10267000B6B6B6B6B6B6B6B6B6B6B6B6B6B6B6B6FA
:10268000B6B6B6B6B6B6B6B6B6B6B5B5B5B5B5B5F0
:10269000B5B5B5B5B5B5B5B5B5B5B5B5B5B5B5B5EA
:1026A000B5B5B5B5B5B5B5B5B5B5B5B5B5B5B5B5DA
:1026B000B5B5B5B5B5B5B5B5B5B5B5B5B5B5B5B5CA
:1026C000B5B5B5B5B5B5B5B5B5B5B5B5B5B5B5B5BA
:1026D000B5B5B5B5B5B5B5B5B5B5B5B5B5B6B6B6A7
:1026E000B6B6B6B6B6B6B6B6B6B6B6B6B6B6B6B68A
:1026F000B6B6B6B6B6B6B6B6B6B6B6B6B6B6B6B67A
:10270000B6B6B6B6B6B6B6B6B6B6B6B6B6B6B6B669
:10271000B6B6B6B6B6B6B6B6B6B6B6B6B6B6B7B757
:10272000B7B7B7B7B7B7B7B7B7B7B7B7B7B7B7B739
:10273000B7B7B7B7B7B7B7B7B7B7B7B7B7B7B7B729
:10274000B7B7B7B7B7B8B8B8B8B8B8B8B8B8B8B80E
:10275000B8B8B8B8B8B8B8B8B8B8B8B8B8B8B8B8F9
:10276000B8B8B8B8B8B9B9B9B9B9B9B9B9B9B9B9DE
:10277000B9B9B9B9B9B9B9B9B9B9B9B9B9B9B9B9C9
:10278000B9BABABABABABABABABABABABABABABAAA
:10279000BABABABABABABABABABABBBBBBBBBBBB93
:1027A000BBBBBBBBBBBBBBBBBBBBBBBBBBBBBBBB79
:1027B000BBBBBCBCBCBCBCBCBCBCBCBCBCBCBCBC5B
:1027C000BCBCBCBCBCBCBCBCBDBDBDBDBDBDBDBD41
:1027D000BDBDBDBDBDBDBDBDBDBDBDBDBDBEBEBE26
:1027E000BEBEBEBEBEBEBEBEBEBEBEBEBEBEBEBE09
:1027F000BEBEBFBFBFBFBFBFBFBFBFBFBFBFBFBFEB
:10280000BFBFBFBFBFBFC0C0C0C0C0C0C0C0C0C0CE
:10281000C0C0C0C0C0C0C0C0C0C0C1C1C1C1C1C1B2
:10282000C1C1C1C1C1C1C1C1C1C1C1C1C1C1C2C296
:10283000C2C2C2C2C2C2C2C2C2C2C2C2C2C2C2C278
:10284000C2C3C3C3C3C3C3C3C3C3C3C3C3C3C3C359
:10285000C3C3C3C3C3C4C4C4C4C4C4C4C4C4C4C43D
:10286000C4C4C4C4C4C4C4C4C5C5C5C5C5C5C5C520
:10287000C5C5C5C5C5C5C5C5C5C5C5C5C5C6C6C605
:10288000C6C6C6C6C6C6C6C6C6C6C6C6C6C6C6C6E8
:10289000C6C7C7C7C7C7C7C7C7C7C7C7C7C7C7C7C9
:1028A000C7C7C7C7C7C7C8C8C8C8C8C8C8C8C8C8AE
:1028B000C8C8C8C8C8C8C8C8C8C8C8C8C9C9C9C994
:1028C000C9C9C9C9C9C9C9C9C9C9C9C9C9C9C9C978
:1028D000C9C9C9C9CACACACACACACACACACACACA5C
:1028E000CACACACACACACACACACACACACACBCBCB45
:1028F000CBCBCBCBCBCBCBCBCBCBCBCBCBCBCBCB28
:10290000CBCBCBCBCBCBCBCBCBCCCCCCCCCCCCCC10
:10291000CCCCCCCCCCCCCCCCCCCCCCCCCCCCCCCCF7
:10292000CCCCCCCCCCCCCCCCCCCDCDCDCDCDCDCDE0
:10293000CDCDCDCDCDCDCDCDCDCDCDCDCDCDCDCDC7
:10294000CDCDCDCDCDCDCDCDCDCDCDCDCDCDCDCDB7
:10295000CDCDCDCECECECECECECECECECECECECE9A
:10296000CECECECECECECECECECECECECECECECE87
:10297000CECECECECECECECECECECECECECECECE77
:10298000CECECECECECECECECECECECECECECECE67
:10299000CECECECECECECECECECECECECECECECE57
:1029A000CECECECECECECECECECECECECECECECE47
:1029B000CECECECECECECECECECECECECECECECE37
:1029C000CECECECECECECECECECECECECECECECE27
:1029D000CECECECECECECECECECECECECECECECE17
:1029E000CECECECECECECECECECECECECECECECE07
:1029F000CECECECECECDCDCDCDCDCDCDCDCDCDCD02
:102A0000CDCDCDCDCDCDCDCDCDCDCDCDCDCDCDCDF6
:102A1000CDCDCDCDCDCDCDCDCDCDCCCCCCCCCCCCEC
:102A2000CCCCCCCCCCCCCCCCCCCCCCCCCCCCCCCCE6
:102A3000CCCCCCCCCCCCCBCBCBCBCBCBCBCBCBCBE0
:102A4000CBCBCBCBCBCBCBCBCBCBCBCBCBCACACAD9
:102A5000CACACACACACACACACACACACACACACACAD6
:102A6000CAC9C9C9C9C9C9C9C9C9C9C9C9C9C9C9D5
:102A7000C9C9C9C8C8C8C8C8C8C8C8C8C8C8C8C8D3
:102A8000C8C8C8C8C7C7C7C7C7C7C7C7C7C7C7C7D2
:102A9000C7C7C7C6C6C6C6C6C6C6C6C6C6C6C6C6D3
:102AA000C6C6C5C5C5C5C5C5C5C5C5C5C5C5C5C4D5
:102AB000C4C4C4C4C4C4C4C4C4C4C4C4C4C3C3C3D9
:102AC000C3C3C3C3C3C3C3C3C3C2C2C2C2C2C2C2DD
:102AD000C2C2C2C2C2C1C1C1C1C1C1C1C1C1C1C1E1
:102AE000C1C0C0C0C0C0C0C0C0C0C0C0BFBFBFBFE9
:102AF000BFBFBFBFBFBFBFBEBEBEBEBEBEBEBEBEEF
:102B0000BEBDBDBDBDBDBDBDBDBDBDBCBCBCBCBCF9
:102B1000BCBCBCBCBCBBBBBBBBBBBBBBBBBBBBBA01
:102B2000BABABABABABABABABAB9B9B9B9B9B9B90C
:102B3000B9B9B8B8B8B8B8B8B8B8B8B7B7B7B7B718
:102B4000B7B7B7B7B6B6B6B6B6B6B6B6B6B5B5B524
:102B5000B5B5B5B5B5B5B4B4B4B4B4B4B4B4B4B330
:102B6000B3B3B3B3B3B3B3B2B2B2B2B2B2B2B2B23E
:102B7000B1B1B1B1B1B1B1B1B0B0B0B0B0B0B0B04D
:102B8000AFAFAFAFAFAFAFAFAEAEAEAEAEAEAEAE5D
:102B9000ADADADADADADADADACACACACACACACAC6D
:102BA000ABABABABABABABABAAAAAAAAAAAAAAAA7D
:102BB000A9A9A9A9A9A9A9A9A8A8A8A8A8A8A8A78E
:102BC000A7A7A7A7A7A7A7A6A6A6A6A6A6A6A6A59F
:102BD000A5A5A5A5A5A5A4A4A4A4A4A4A4A4A3A3B1
:102BE000A3A3A3A3A3A2A2A2A2A2A2A2A2A1A1A1C3
:102BF000A1A1A1A1A0A0A0A0A0A0A09F9F9F9F9FD6
:102C00009F9F9F9E9E9E9E9E9E9E9D9D9D9D9D9DE7
:102C10009D9C9C9C9C9C9C9C9C9B9B9B9B9B9B9BFA
:102C20009A9A9A9A9A9A9A9999999999999999980E
:102C30009898989898989797979797979796969621
:102C40009696969695959595959595959494949434
:102C50009494949393939393939392929292929247
:102C60009292919191919191919090909090909059
:102C70008F8F8F8F8F8F8F8F8E8E8E8E8E8E8E8D6D
:102C80008D8D8D8D8D8D8D8C8C8C8C8C8C8C8B8B7F
:102C90008B8B8B8B8B8B8A8A8A8A8A8A8A89898991
:102CA00089898989898888888888888887878787A3
:102CB00087878787868686868686868685858585B4
:102CC00085858585848484848484848483838383C4
:102CD00083838382828282828282828181818181D6
:102CE0008181818180808080808080807F7F7F7FE4
:102CF0007F7F7F7F7E7E7E7E7E7E7E7E7D7D7D7DF4
:102D00007D7D7D7D7D7C7C7C7C7C7C7C7C7C7B7B00
:102D10007B7B7B7B7B7B7A7A7A7A7A7A7A7A7A790E
:102D2000797979797979797978787878787878781B
:102D30007878777777777777777777767676767626
:102D40007676767676757575757575757575747430
:102D5000747474747474747474737373737373733A
:102D60007373737272727272727272727272717142
:102D7000717171717171717171707070707070704A
:102D8000707070706F6F6F6F6F6F6F6F6F6F6F6F4F
:102D90006E6E6E6E6E6E6E6E6E6E6E6E6D6D6D6D57
:102DA0006D6D6D6D6D6D6D6D6D6C6C6C6C6C6C6C5A
:102DB0006C6C6C6C6C6C6C6B6B6B6B6B6B6B6B6B5C
:102DC0006B6B6B6B6B6B6A6A6A6A6A6A6A6A6A6A5D
:102DD0006A6A6A6A6A69696969696969696969695E
:102DE000696969696969686868686868686868685D
:102DF0006868686868686868686867676767676759
:102E00006767676767676767676767676767676752
:102E10006666666666666666666666666666666652
:102E20006666666666666666666666656565656547
:102E30006565656565656565656565656565656542
:102E40006565656565656565656565656565656532
:102E50006565646464646464646464646464646430
:102E60006464646464646464646464646464646422
:102E70006464646464646464646464646464646412
:102E80006464646464646464646464646464646402
:102E900064646464646464646464646464646464F2
:102EA00064646464646464646464646464646464E2
:102EB00064646464646464646464646464646465D1
:102EC00065656565656565656565656565656565B2
:102ED00065656565656565656565656565656565A2
:102EE0006565656565656566666666666666666689
:102EF0006666666666666666666666666666666672
:102F00006666676767676767676767676767676753
:102F1000676767676767676767686868686868683A
:102F2000686868686868686868686868686969691E
:102F30006969696969696969696969696969696A00
:102F40006A6A6A6A6A6A6A6A6A6A6A6A6A6A6A6AE1
:102F50006B6B6B6B6B6B6B6B6B6B6B6B6B6B6B6BC1
:102F60006C6C6C6C6C6C6C6C6C6C6C6C6C6C6D6D9F
:102F70006D6D6D6D6D6D6D6D6D6D6D6D6D6E6E6E7E
:102F80006E6E6E6E6E6E6E6E6E6E6F6F6F6F6F6F5B
:102F90006F6F6F6F6F6F6F70707070707070707038
:102FA0007070707171717171717171717171717114
:102FB00072727272727272727272727273737373ED
:102FC00073737373737373747474747474747474C8
:102FD00074747575757575757575757575757676A1
:102FE000767676767676767676777777777777777A
:102FF0007777777878787878787878787878797952
:1030000079797979797979797A7A7A7A7A7A7A7A28
:103010007A7A7A7B7B7B7B7B7B7B7B7B7B7C7C7C00
:103020007C7C7C7C7C7C7C7D7D7D7D7D7D7D7D7DD7
:103030007D7E7E7E7E7E7E7E7E7E7E7E7F7F7F7FAD
:103040007F7F7F7F7F7F8080808080808080808086
:10305000818181818181818181818282828282825A
:103060008282828283838383838383838384848431
:103070008484848484848485858585858585858507
:1030800085868686868686868686868787878787DC
:1030900087878787878888888888888888888888B5
:1030A000898989898989898989898A8A8A8A8A8A8A
:1030B0008A8A8A8A8B8B8B8B8B8B8B8B8B8B8C8C62
:1030C0008C8C8C8C8C8C8C8C8C8D8D8D8D8D8D8D39
:1030D0008D8D8D8E8E8E8E8E8E8E8E8E8E8E8F8F11
:1030E0008F8F8F8F8F8F8F8F9090909090909090E8
:1030F00090909091919191919191919191919192C2
:103100009292929292929292929293939393939399
:103110009393939393949494949494949494949474
:10312000949595959595959595959595959596964E
:103130009696969696969696969697979797979729
:103140009797979797979798989898989898989806
:1031500098989898999999999999999999999999E3
:103160009999999A9A9A9A9A9A9A9A9A9A9A9A9AC2
:103170009A9B9B9B9B9B9B9B9B9B9B9B9B9B9B9BA0
:103180009B9C9C9C9C9C9C9C9C9C9C9C9C9C9C9C80
:103190009C9C9D9D9D9D9D9D9D9D9D9D9D9D9D9D61
:1031A0009D9D9D9D9E9E9E9E9E9E9E9E9E9E9E9E43
:1031B0009E9E9E9E9E9E9E9E9F9F9F9F9F9F9F9F27
:1031C0009F9F9F9F9F9F9F9F9F9F9F9F9F9F9FA00E
:1031D000A0A0A0A0A0A0A0A0A0A0A0A0A0A0A0A0EF
:1031E000A0A0A0A0A0A0A0A0A0A0A1A1A1A1A1A1D9
:1031F000A1A1A1A1A1A1A1A1A1A1A1A1A1A1A1A1BF
:10320000A1A1A1A1A1A1A1A1A1A1A1A1A1A1A1A1AE
:10321000A1A1A2A2A2A2A2A2A2A2A2A2A2A2A2A290
:10322000A2A2A2A2A2A2A2A2A2A2A2A2A2A2A2A27E
:10323000A2A2A2A2A2A2A2A2A2A2A2A2A2A2A2A26E
:10324000A2A2A2A2A2A2A2A2A2A2A2A2A2A2A2A25E
:10325000A2A2A2A2A2A2A2A2A2A2A2A2A2A2A2A24E
:10326000A2A2A2A2A2A2A2A2A2A2A2A2A2A2A2A23E
:10327000A2A2A2A2A2A2A2A2A2A2A2A2A2A2A2A12F
:10328000A1A1A1A1A1A1A1A1A1A1A1A1A1A1A1A12E
:10329000A1A1A1A1A1A1A1A1A1A1A1A1A1A1A1A11E
:1032A000A1A1A1A1A1A1A0A0A0A0A0A0A0A0A0A018
:1032B000A0A0A0A0A0A0A0A0A0A0A0A0A0A0A0A00E
:1032C000A09F9F9F9F9F9F9F9F9F9F9F9F9F9F9F0D
:1032D0009F9F9F9F9F9F9F9E9E9E9E9E9E9E9E9E07
:1032E0009E9E9E9E9E9E9E9E9E9E9E9D9D9D9D9D03
:1032F0009D9D9D9D9D9D9D9D9D9D9D9D9C9C9C9C02
:103300009C9C9C9C9C9C9C9C9C9C9C9B9B9B9B9B02
:103310009B9B9B9B9B9B9B9B9B9B9A9A9A9A9A9A03
:103320009A9A9A9A9A9A9A9A999999999999999905
:103330009999999999989898989898989898989808
:10334000989797979797979797979797979696960F
:103350009696969696969696959595959595959515
:10336000959595949494949494949494949493931C
:103370009393939393939393929292929292929225
:10338000929292919191919191919191909090902E
:103390009090909090908F8F8F8F8F8F8F8F8F8E38
:1033A0008E8E8E8E8E8E8E8E8E8D8D8D8D8D8D8D44
:1033B0008D8D8C8C8C8C8C8C8C8C8C8B8B8B8B8B50
:1033C0008B8B8B8A8A8A8A8A8A8A8A8A898989895E
:1033D000898989898988888888888888888787876B
:1033E000878787878786868686868686868585857B
:1033F0008585858585858484848484848484838389
:10340000838383838382828282828282828181819A
:10341000818181818180808080808080807F7F7FAA
:103420007F7F7F7F7F7E7E7E7E7E7E7E7D7D7D7DBB
:103430007D7D7D7D7C7C7C7C7C7C7C7B7B7B7B7BCD
:103440007B7B7B7A7A7A7A7A7A7A797979797979DF
:1034500079797878787878787877777777777777F1
:103460007776767676767676757575757575757404
:103470007474747474747473737373737373727217
:10348000727272727271717171717171717070702A
:10349000707070706F6F6F6F6F6F6F6E6E6E6E6E3D
:1034A0006E6E6D6D6D6D6D6D6D6D6C6C6C6C6C6C50
:1034B0006C6B6B6B6B6B6B6B6A6A6A6A6A6A6A6A63
:1034C0006969696969696968686868686868676777
:1034D0006767676767676666666666666665656589
:1034E000656565656464646464646464636363639C
:1034F00063636362626262626262626161616161AE
:10350000616160606060606060605F5F5F5F5F5FBF
:103510005F5F5E5E5E5E5E5E5E5D5D5D5D5D5D5DD0
:103520005D5C5C5C5C5C5C5C5C5B5B5B5B5B5B5BE1
:103530005B5A5A5A5A5A5A5A5A59595959595959F1
:103540005958585858585858585757575757575701
:103550005756565656565656565555555555555511
:103560005554545454545454545453535353535320
:10357000535352525252525252525251515151512E
:10358000515151515050505050505050504F4F4F3A
:103590004F4F4F4F4F4F4E4E4E4E4E4E4E4E4E4D46
:1035A0004D4D4D4D4D4D4D4D4C4C4C4C4C4C4C4C53
:1035B0004C4C4B4B4B4B4B4B4B4B4B4B4A4A4A4A5D
:1035C0004A4A4A4A4A4A4949494949494949494965
:1035D0004848484848484848484847474747474771
:1035E0004747474747464646464646464646464676
:1035F000454545454545454545454545444444447F
:103600004444444444444444434343434343434382
:103610004343434342424242424242424242424286
:103620004242414141414141414141414141414089
:1036300040404040404040404040404040403F3F8C
:103640003F3F3F3F3F3F3F3F3F3F3F3F3F3E3E3E8D
:103650003E3E3E3E3E3E3E3E3E3E3E3E3E3E3D3D8C
:103660003D3D3D3D3D3D3D3D3D3D3D3D3D3D3D3D8A
:103670003C3C3C3C3C3C3C3C3C3C3C3C3C3C3C3C8A
:103680003C3C3C3C3B3B3B3B3B3B3B3B3B3B3B3B86
:103690003B3B3B3B3B3B3B3B3B3B3B3A3A3A3A3A7F
:1036A0003A3A3A3A3A3A3A3A3A3A3A3A3A3A3A3A7A
:1036B0003A3A3A3A3A3A3A39393939393939393973
:1036C000393939393939393939393939393939396A
:1036D000393939393939393939393939383838385E
:1036E000383838383838383838383838383838385A
:1036F000383838383838383838383838383838384A
:103700003838383838383838383838383838383839
:103710003838383838383838383838383838383829
:103720003838383838383838383838383838383819
:103730003838383838383838383838383838383809
:1037400038383838383838383838383838383838F9
:1037500038383838383838383838383838383838E9
:1037600038383838383838383838383838383838D9
:1037700038383838383838383838383838383939C7
:1037800039393939393939393939393939393939A9
:103790003939393939393939393939393939393999
:1037A00039393939393939393A3A3A3A3A3A3A3A81
:1037B0003A3A3A3A3A3A3A3A3A3A3A3A3A3A3A3A69
:1037C0003A3A3A3A3A3A3A3A3B3B3B3B3B3B3B3B51
:1037D0003B3B3B3B3B3B3B3B3B3B3B3B3B3B3B3B39
:1037E0003B3B3B3B3C3C3C3C3C3C3C3C3C3C3C3C1D
:1037F0003C3C3C3C3C3C3C3C3C3C3C3C3C3D3D3D06
:103800003D3D3D3D3D3D3D3D3D3D3D3D3D3D3D3DE8
:103810003D3D3D3D3D3E3E3E3E3E3E3E3E3E3E3ECD
:103820003E3E3E3E3E3E3E3E3E3E3E3F3F3F3F3FB3
:103830003F3F3F3F3F3F3F3F3F3F3F3F3F3F3F3F98
:103840004040404040404040404040404040404078
:10385000404040404141414141414141414141415C
:103860004141414141414141414242424242424241
:103870004242424242424242424242424343434324
:103880004343434343434343434343434343434308
:1038900044444444444444444444444444444444E8
:1038A00044444445454545454545454545454545CB
:1038B00045454545454545464646464646464646AF
:1038C0004646464646464646464646474747474793
:1038D0004747474747474747474747474747474877
:1038E0004848484848484848484848484848484858
:1038F000484848484949494949494949494949493C
:103900004949494949494949494A4A4A4A4A4A4A20
:103910004A4A4A4A4A4A4A4A4A4A4A4A4A4A4A4B06
:103920004B4B4B4B4B4B4B4B4B4B4B4B4B4B4B4BE7
:103930004B4B4B4B4B4B4B4C4C4C4C4C4C4C4C4CCE
:103940004C4C4C4C4C4C4C4C4C4C4C4C4C4C4C4CB7
:103950004D4D4D4D4D4D4D4D4D4D4D4D4D4D4D4D97
:103960004D4D4D4D4D4D4D4D4D4D4D4D4E4E4E4E83
:103970004E4E4E4E4E4E4E4E4E4E4E4E4E4E4E4E67
:103980004E4E4E4E4E4E4E4E4E4E4E4E4F4F4F4F53
:103990004F4F4F4F4F4F4F4F4F4F4F4F4F4F4F4F37
:1039A0004F4F4F4F4F4F4F4F4F4F4F4F4F4F4F4F27
:1039B0004F4F4F505050505050505050505050500A
:1039C00050505050505050505050505050505050F7
:1039D00050505050505050505050505050505050E7
:1039E00050505050505050505050505050505050D7
:1039F00050505050515151515151515151515151BB
:103A000051515151515151515151515151515151A6
:103A10005151515151515151515151515151515196
:103A20005151515151515151515151515151515186
:103A30005151515151515151515151515151515176
:103A4000515151515151515050505050505050506F
:103A50005050505050505050505050505050505066
:103A60005050505050505050505050505050505056
:103A70005050505050505050505050505050505046
:103A80005050505050504F4F4F4F4F4F4F4F4F4F40
:103A90004F4F4F4F4F4F4F4F4F4F4F4F4F4F4F4F36
:103AA0004F4F4F4F4F4F4F4F4F4F4F4F4E4E4E4E2A
:103AB0004E4E4E4E4E4E4E4E4E4E4E4E4E4E4E4E26
:103AC0004E4E4E4E4E4E4E4E4E4D4D4D4D4D4D4D1D
:103AD0004D4D4D4D4D4D4D4D4D4D4D4D4D4D4D4D16
:103AE0004D4D4D4C4C4C4C4C4C4C4C4C4C4C4C4C13
:103AF0004C4C4C4C4C4C4C4C4C4C4B4B4B4B4B4B0C
:103B00004B4B4B4B4B4B4B4B4B4B4B4B4B4B4B4A06
:103B10004A4A4A4A4A4A4A4A4A4A4A4A4A4A4A4A05
:103B20004A4A494949494949494949494949494903
:103B30004949494949484848484848484848484800
:103B400048484848484847474747474747474747FF
:103B500047474747474747464646464646464646FE
:103B600046464646464646464545454545454545FD
:103B700045454545454545444444444444444444FE
:103B800044444444444444434343434343434343FE
:103B900043434343434342424242424242424242FF
:103BA0004242424242414141414141414141414100
:103BB0004141414040404040404040404040404002
:103BC00040403F3F3F3F3F3F3F3F3F3F3F3F3F3F03
:103BD0003E3E3E3E3E3E3E3E3E3E3E3E3E3E3D3D07
:103BE0003D3D3D3D3D3D3D3D3D3D3D3D3C3C3C3C09
:103BF0003C3C3C3C3C3C3C3C3C3C3C3B3B3B3B3B0A
:103C00003B3B3B3B3B3B3B3B3B3A3A3A3A3A3A3A0B
:103C10003A3A3A3A3A3A3A3939393939393939390D
:103C2000393939393938383838383838383838380F
:103C30003838383837373737373737373737373710
:103C40003737363636363636363636363636363612
:103C50003635353535353535353535353535353513
:103C60003434343434343434343434343434343315
:103C70003333333333333333333333333333333215
:103C80003232323232323232323232323232323115
:103C90003131313131313131313131313131313114
:103CA0003030303030303030303030303030303014
:103CB00030302F2F2F2F2F2F2F2F2F2F2F2F2F2F12
:103CC0002F2F2F2F2F2E2E2E2E2E2E2E2E2E2E2E0F
:103CD0002E2E2E2E2E2E2E2E2E2D2D2D2D2D2D2D0B
:103CE0002D2D2D2D2D2D2D2D2D2D2D2D2D2D2D2C05
:103CF0002C2C2C2C2C2C2C2C2C2C2C2C2C2C2C2C04
:103D00002C2C2C2C2C2C2C2C2B2B2B2B2B2B2B2BFB
:103D10002B2B2B2B2B2B2B2B2B2B2B2B2B2B2B2BF3
:103D20002B2B2B2B2B2B2B2A2A2A2A2A2A2A2A2AEC
:103D30002A2A2A2A2A2A2A2A2A2A2A2A2A2A2A2AE3
:103D40002A2A2A2A2A2A2A2A2A2A2A2A2A2A2A2AD3
:103D50002A2A2929292929292929292929292929D1
:103D600029292929292929292929292929292929C3
:103D700029292929292929292929292929292929B3
:103D800029292929292929292929292929292929A3
:103D90002929292929292929292929292929292993
:103DA0002929292929292929292929292929292983
:103DB0002929292929292929292929292A2A2A2A6F
:103DC0002A2A2A2A2A2A2A2A2A2A2A2A2A2A2A2A53
:103DD0002A2A2A2A2A2A2A2A2A2A2A2A2A2A2A2A43
:103DE0002A2A2A2A2B2B2B2B2B2B2B2B2B2B2B2B27
:103DF0002B2B2B2B2B2B2B2B2B2B2B2B2B2B2B2C12
:103E00002C2C2C2C2C2C2C2C2C2C2C2C2C2C2C2CF2
:103E10002C2C2C2C2C2D2D2D2D2D2D2D2D2D2D2DD7
:103E20002D2D2D2D2D2D2D2E2E2E2E2E2E2E2E2EB9
:103E30002E2E2E2E2E2E2E2E2F2F2F2F2F2F2F2F9A
:103E40002F2F2F2F2F2F2F30303030303030303079
:103E50003030303030313131313131313131313157
:103E60003131323232323232323232323232333332
:103E7000333333333333333333333434343434340C
:103E800034343434343535353535353535353536E6
:103E900036363636363636363636373737373737BC
:103EA0003737373838383838383838383839393992
:103EB0003939393939393A3A3A3A3A3A3A3A3A3B67
:103EC0003B3B3B3B3B3B3B3B3C3C3C3C3C3C3C3C3A
:103ED0003D3D3D3D3D3D3D3D3E3E3E3E3E3E3E3E0A
:103EE0003F3F3F3F3F3F3F3F4040404040404040DA
:103EF00041414141414141414242424242424243A9
:103F00004343434343434444444444444445454574
:103F10004545454545464646464646474747474741
:103F2000474748484848484848494949494949490C
:103F30004A4A4A4A4A4A4B4B4B4B4B4B4B4C4C4CD4
:103F40004C4C4C4D4D4D4D4D4D4D4E4E4E4E4E4E9E
:103F50004F4F4F4F4F4F5050505050505151515163
:103F60005151525252525252535353535353545429
:103F700054545454555555555555565656565656EF
:103F800057575757575758585858585959595959B2
:103F9000595A5A5A5A5A5A5B5B5B5B5B5C5C5C5C75
:103FA0005C5C5D5D5D5D5D5E5E5E5E5E5E5F5F5F37
:103FB0005F5F6060606060606161616161626262F8
:103FC00062626263636363636464646464656565B9
:103FD0006565656666666666676767676768686879
:103FE00068686969696969696A6A6A6A6A6B6B6B38
:103FF0006B6B6C6C6C6C6C6D6D6D6D6D6E6E6E6EF6
:104000006E6F6F6F6F6F6F707070707071717171B4
:104010007172727272727373737373747474747472
:10402000757575757576767676767777777777782E
:104030007878787879797979797A7A7A7A7A7B7BEB
:104040007B7B7B7C7C7C7C7C7D7D7D7D7D7E7E7EA8
:104050007E7E7F7F7F7F7F80808080808181818165
:104060008182828282828383090009000A000A0019
:104070000B000B000C000D000E000E000F001000D6
:1040800011001200130014001600170018001A0087
:104090001B001D001F002000220024002600290014
:1040A0002B002E003000330036003A003D00410066
:1040B000450049004D00520056005C006100670059
:1040C0006D0073007A008100890091009A00A300BE
:1040D000AD00B700C200CE00DA00E700F400030133
:1040E00012012301340146015A016E0184019B0132
:1040F000B301CD01E90106022502450268028C02E6
:10410000B302DC020803360367039B03D2030C04EB
:1041100049048B04D00419056705B90510066C061F
:10412000CE063507A3071708930815099F09320A19
:10413000CD0A720B200CD80C9C0D6B0E460F2F1065
:1041400025112A123F1364149A15E3163F18B1196A
:10415000381BD61C8D1E5E204B2255247E26C82877
:10416000342BC62D7F30000011241FBECFEFD8E0C6
:10417000DEBFCDBF11E0A0E0B1E0ECEEF6E402C09E
:1041800005900D92A030B107D9F711E0A0E0B1E0A1
:1041900001C01D92A830B107E1F70E94F1210C94F3
:1041A00074230C9400001F920F920FB60F921124EB
:1041B0008F938091050187BD81E0809307018F91E6
:1041C0000F900FBE0F901F9018951F920F920FB671
:1041D0000F9211242F933F934F938F939F93F894B3
:1041E00000000000000000000000000000000000CF
:1041F00000000000000000004091010191E020E07B
:1042000030E008C0492B990F2F5F3F4F2830310510
:1042100009F44CC000000000000000000000000095
:10422000000000000000000000000000000000008E
:10423000000000000000000000000000000000007E
:10424000000000000000000000000000000000006E
:10425000000000000000000000000000000000005E
:10426000000000000000000000000000000000004E
:10427000000000000000000000000000000000003E
:10428000000000000000000000000000000000002E
:10429000000000004A99B6CF892F80954823990FD6
:1042A0002F5F3F4F2830310509F0B4CF4093010113
:1042B0004093020181E0809306018CB383708CBB34
:1042C00078949F918F914F913F912F910F900FBEB6
:1042D0000F901F9018951F920F920FB60F921124F6
:1042E0002F933F934F938F939F93F8940000000078
:1042F00000000000000000000000000000000000BE
:10430000000000004091000191E020E030E008C092
:10431000492B990F2F5F3F4F2830310509F44CC0CE
:10432000000000000000000000000000000000008D
:10433000000000000000000000000000000000007D
:10434000000000000000000000000000000000006D
:10435000000000000000000000000000000000005D
:10436000000000000000000000000000000000004D
:10437000000000000000000000000000000000003D
:10438000000000000000000000000000000000002D
:10439000000000000000000000000000000000001D
:1043A0004B99B6CF892F80954823990F2F5F3F4FA8
:1043B0002830310509F0B4CF409300014093020149
:1043C00081E0809306018CB383708CBB78949F91BD
:1043D0008F914F913F912F910F900FBE0F901F9093
:1043E00018952F923F924F925F926F927F928F9289
:1043F0009F92AF92BF92CF92DF92EF92FF920F9374
:104400001F93DF93CF93CDB7DEB727970FB6F894FE
:10441000DEBF0FBECDBF8AE08093690083E08DBB15
:104420001BB815B818B880E48AB983E883BD84BD89
:1044300021E025BD10926E0017BC18BC16BC89E0A7
:10444000809381001092800080E094E09093890036
:104450008093880082E080936F0010920201109296
:1044600005012093070188E893E19093040180936C
:104470000301789413BC33242224662477248824EF
:1044800099241D821C821B821A821F821E82442450
:10449000552481E089830CC04E815F81359B06C025
:1044A000E981E23009F087C0F1E0F9835F834E8350
:1044B00080910701882309F468C0EC81FD816E0EAC
:1044C0007F1E8FEF9FE168227922EA81FB818E0EA9
:1044D0009F1E88229922F981F13009F46FC0F301FF
:1044E000E859FF4DD490F401E859FF4DE491A090B4
:1044F0000301B0900401E6956E2F70E080E090E03B
:10450000920140E050E00E9433237B018C01D6945D
:104510006D2D70E080E090E0EE81FF819F0140E032
:1045200050E00E943323E60EF71E081F191FCC240B
:10453000DD24C801B701A60195010E9452232093F2
:1045400005018E819F81009729F0332019F401978E
:104550009F838E834114510429F0222019F408947A
:1045600041085108EE81FF81EF2B29F433246624A2
:1045700077241D821C824114510429F422248824AA
:1045800099241B821A8210920701809106018823C8
:1045900009F482CF8091020187FD19C08091020148
:1045A000831591F180910201821551F14E815F8155
:1045B0001092060173CF92E0998378CFF301E85906
:1045C000FF4FD490F401E859FF4FE49190CF33208E
:1045D000E9F0222071F520900201F0E82F0EE22D83
:1045E000F0E0EE0FFF1FE859FF4B8591949140904A
:1045F0000301509004019B838A834E815F81D8CF51
:104600004E815F812224D4CF3324CCCF309002015D
:1046100090E8390EE32DF0E0EE0FFF1FE859FF4B55
:104620008591949140910301509104019D838C8365
:10463000BFCF809102018058E82FF0E0EE0FFF1FFE
:10464000E859FF4B259134914091030150910401A9
:10465000232C382E8C819D819B838A833D832C83E0
:104660004E805F80A5CF629FD001739FF001829F33
:10467000E00DF11D649FE00DF11D929FF00D839FF1
:10468000F00D749FF00D659FF00D9927729FB00D8E
:10469000E11DF91F639FB00DE11DF91FBD01CF01A1
:1046A00011240895A1E21A2EAA1BBB1BFD010DC007
:1046B000AA1FBB1FEE1FFF1FA217B307E407F507D2
:1046C00020F0A21BB30BE40BF50B661F771F881FAE
:1046D000991F1A9469F760957095809590959B0144
:0C46E000AC01BD01CF010895F894FFCF9C
:00000001FF
